:020000020000FC
:100000008EC218951895C1C11895189550C00DC08D
:100010001895189518951895189518955DC1189507
:1000200018951895189585C018950F930FB70F93CD
:100030001F932F933F930F921F92849B25C002E042
:1000400009BF78940091A5001091A40017FF04C087
:100050001195011B112703C0010F1127111F34EF48
:1000600024E209018BD78901220F331F220F331F8E
:10007000020F131F2091A6003091A700021B130B43
:10008000F8942AE929BF04C00091A6001091A700A6
:1000900028B539B5200F311F39BD28BD1F900F90ED
:1000A0003F912F911F910F910FBF0F9118950F93B3
:1000B0000FB70F931F932F933F930F921F92859B20
:1000C00025C002E009BF78940091AD001091AC000A
:1000D00017FF04C01195011B112703C0010F112741
:1000E000111F34EF24E2090149D78901220F331F80
:1000F000220F331F020F131F2091AE003091AF006B
:10010000021B130BF8942AE929BF04C00091AE002A
:100110001091AF002AB53BB5200F311F3BBD2ABD62
:100120001F900F903F912F911F910F910FBF0F9133
:1001300018950F930FB70F931F930FE00A23033007
:1001400009F060C00091920010919300200E311EC2
:10015000C8F4A4FF0CC000916A0010919000011334
:1001600002C0AF7E0FC0039500936A000BC00091E0
:100170006A0010919100011302C0A06103C00A95AA
:1001800000936A000091960010919700400E511E56
:10019000C8F4A5FF0CC000916B00109194000113EE
:1001A00002C0AF7D0FC0039500936B000BC00091A0
:1001B0006B0010919500011302C0A06203C00A9564
:1001C00000936B000091A2001091A300A00EB11E3D
:1001D000C8F4A6FF0CC00091A4001091A000011368
:1001E00002C0AF7B0FC003950093A4000BC0009129
:1001F000A4001091A100011302C0A06403C00A95DD
:100200000093A4000FE00B23033009F060C00091BD
:100210009A0010919B00600E711EC8F4B4FF0CC0D0
:1002200000916C0010919800011302C0BF7E0FC0B6
:10023000039500936C000BC000916C001091990025
:10024000011302C0B06103C00A9500936C000091D5
:100250009E0010919F00800E911EC8F4B5FF0CC047
:1002600000916D0010919C00011302C0BF7D0FC072
:10027000039500936D000BC000916D0010919D00DF
:10028000011302C0B06203C00A9500936D00009193
:10029000AA001091AB00C00ED11EC8F4B6FF0CC06E
:1002A0000091AC001091A800011302C0BF7B0FC0E9
:1002B00003950093AC000BC00091AC001091A90015
:1002C000011302C0B06403C00A950093AC001F91F3
:1002D0000F910FBF0F9118950F930FB70F931F93A7
:1002E0002F93DF93CF93C091690006B30F702091D5
:1002F0006000202B0FEF07BB02E009BF7894CA957E
:10030000CA3608F4CA5FDD27088115B110170FB788
:1003100000FBCA3641F0CB3681F0CC3681F0CD36C9
:1003200081F018830FC024F97A950F2D07230F71E0
:1003300011F0DF9A01C0DF9805C025F903C026F946
:1003400001C027F9C395C395C03708F0C6500C2FDC
:100350000A56006207B928BBC39A0000C3980FE091
:1003600007BB00EF022B08BB00EF2023C0936900FE
:1003700020936000F8940AE909BFCF91DF912F9193
:100380001F910F910FBF0F9118959098919A929A83
:100390000F930FB70F931F932F9316B312951F70E0
:1003A000909A9298EA9411F400EEF0220000000076
:1003B000000026B3207F122B20916100212710938B
:1003C000610020936200122B209163001F3F11F403
:1003D000222702C025FF239520936300929A02E012
:1003E00009BF7894E894A3FF12C000916A0000232B
:1003F00021F00A95689400936A0000916B00002335
:1004000021F00A95689400936B000EF0A77FE894A2
:10041000A2FF16C000916A0010917000011720F42D
:100420000395689400936A0000916B00109173002B
:10043000011720F40395689400936B000EF0AB7FD6
:10044000E894B3FF12C000916C00002321F00A95DC
:10045000689400936C0000916D00002321F00A95D0
:10046000689400936D000EF0B77FE894B2FF16C059
:1004700000916C0010918000011720F4039568949E
:1004800000936C0000916D0010918300011720F41F
:100490000395689400936D000EF0BB7F2CEF0091E4
:1004A000B00003FBF6F806FBF7F8021B2DE7021776
:1004B0000093B00058F1021B0093B000A1FF12C0DE
:1004C00000917C0010917D00015040F40BE310403E
:1004D00028F4A8E02AE0E22E6894F0F800937C006B
:1004E00010937D00B1FF12C000917E0010917F003B
:1004F000015040F40BE3104028F4B8E02AE0E22E6B
:100500006894F0F800937E0010937F00F8940AE955
:1005100009BF2F911F910F910FBF0F91189502E006
:100520000EBF0FE50DBF00E207B900B70F7100BFA6
:100530000EEE06B90AE909BF0AE003BF00E40CBFEA
:100540000FE005BD09EF03BD00E00FBD03E00EBDE8
:1005500000270BBD0ABD09BD08BD00EC0ABB00E0C9
:100560000BBB0FE007BB00EF08BB00E004BB0FEFC5
:1005700005BB0FEF01BB07E302BBFF2478941127F3
:10058000EAE600EAFF271193E013FDCF0BE60093A4
:10059000690001E207B991E08EE0E0E7FF272BD484
:1005A00001930196EC37D9F791E08AE1E0E8FF2763
:1005B00022D401930196EC38D9F700917B00009387
:1005C0007C0000917A0000937D0000918B000093E5
:1005D0007E0000918A0000937F0066271DD4AA2721
:1005E000BB277EE126D44DD478E023D44AD471E0F1
:1005F00020D447D408E327D40CE025D406E023D444
:1006000029D2939A01E01FD420E000E81CD400E333
:1006100013D409E211D409E40FD40DE30DD40091F1
:100620006E000A3FE0F020E3939801E00CD418E05C
:1006300091E084E3E0D300D401961A95D9F701E361
:10064000FBD300EC00D41DE091E08CE8D4D3F4D3CC
:1006500001961A95D9F7022FEFD3F894FFCF1127FF
:10066000000F111F000F111F44D400916600E4D346
:100670000EE2E2D300916500DFD300916400DCD389
:1006800000E2DAD304E5D8D30DE3D6D300917D00A0
:1006900009D40291D1D30291CFD30AE3CDD30091F3
:1006A0007C0000D40291C8D30291C6D300ECCBD316
:1006B00001E3C2D309E2C0D309E4BED30DE3BCD346
:1006C00000916F000A3F10F021E3AECF1127000F19
:1006D000111F000F111F0DD400916600ADD30EE263
:1006E000ABD300916500A8D300916400A5D300E2CC
:1006F000A3D304E5A1D30DE39FD300917F00D2D310
:1007000002919AD3029198D30AE396D300917E0086
:10071000C9D3029191D302918FD361E100E70A23FB
:10072000000F602B00E70B23069506950695602BBE
:10073000A0FD0AC000917B0000937C0000917A002C
:1007400000937D006F7E04C0A1FD02C0F7FA64F93A
:100750000CE00A2311F0F6FA64F9B0FD0AC000912A
:100760008B0000937E0000918A0000937F006E7FD3
:1007700004C0B1FD02C0F7FA60F90CE00B2311F0E0
:10078000F6FA60F949D3D6D2403C11F4F4D23ACF0C
:10079000423091F503E00A2341F50AE0E02E689427
:1007A000F0F8F2F840917000509172008091710061
:1007B000F0E0E0E98FD24091730050917900809190
:1007C0007800F0E0E4E986D240917400509177001F
:1007D00080917600F0E0E0EA95D20091750015E096
:1007E000F894019F068217827894949A0FB500615D
:1007F0000FBDA760A77F08CF483091F503E00B231A
:1008000041F50AE0E02E6894F0F8F2F8409180009B
:100810005091820080918100F0E0E8E95BD2409144
:1008200083005091890080918800F0E0ECE952D279
:10083000409184005091870080918600F0E0E8EAC2
:1008400061D20091850015E0F894019F068217821D
:100850007894959A0FB500640FBDB760B77FD4CE7A
:10086000413081F4A1FD0BC0A3FF07C0A77F002783
:1008700000936A0000936B00C7CEAC7FC5CEA97809
:10088000A860C2CE443081F4B1FD0BC0B3FF07C0F5
:10089000B77F002700936C0000936D00B5CEBC7F3E
:1008A000B3CEB978B860B0CE55FFAECE403209F0C5
:1008B000ABCE01D0A7CE0DE0C6D201E0C4D200E39A
:1008C000BBD218E091E086E296D2B6D201961A9594
:1008D000D9F701E3B1D216E086E28DD2ADD201960E
:1008E0001A95D9F7F5FA00E800F903F9ACD222D24B
:1008F0005523E9F71FD2403411F4E894F4CF40387F
:1009000011F46894F0CF403129F0403299F7F5F8AE
:1009100003D0D1CFF5F808950CE095D201E093D241
:1009200019E1219FC00110E166D286D201961A9585
:10093000D9F700EC88D2F5FA00E300F97DD203E2A2
:100940007BD2022FAFD2E5E6008176D2029174D23B
:1009500000E272D214E04FD26FD201961A95D9F705
:100960000DE36AD27BD1E6D1403421F4203079F016
:100970002A95D2CF403821F42A3049F02395CCCFA4
:10098000403211F40ED0EFCF403139F0ECCF04E01B
:10099000E02E6894F2F8F4F8E6CFABD008F4BCCFC0
:1009A0000895E8940AEC4FD259D10DE04CD20DECE9
:1009B0000EF40AEC48D2BED1403119F40CE043D217
:1009C00008952A3099F5403899F456F414E630E049
:1009D000088103950883011729F7032F0883E2CFC5
:1009E0000981039509830C33E9F600270983DACFDF
:1009F000403499F456F413E63FEF08810A950883D2
:100A0000031781F6012F0883CDCF09810A95098349
:100A10000F3F41F60BE30983C5CF403261F655FD28
:100A2000CACF16F06894BECFE894BCCF403439F4F6
:100A30000196E1D1102F0196DED1302FDECF403864
:100A400079F70196D8D1102F13950196D4D1302F74
:100A50003395BECF002700936A0000936B0000938C
:100A60006C0000936D0001E0EED117E091E086E7A5
:100A7000C2D17AEFDED1E0D101961A95C9F7089577
:100A800000916E00023028F400916F000230C8F42B
:100A9000089501E0D8D118E091E084E3ACD1CCD145
:100AA00001961A95D9F700E300ECCDD100E3C4D14B
:100AB0001FE091E08DE79FD1BFD101961A95D9F73C
:100AC000FFCF01E0C0D118E091E084E394D1B4D12C
:100AD00001961A95D9F700E300ECB5D101E3ACD14A
:100AE0001FE091E08DE787D1A7D101961A95D9F73C
:100AF000FFCF2F9301E0A7D1CF2DC072C695DD2780
:100B0000C0590C811E81011B053008F42CC03F81A7
:100B1000031708F43FC00C81010F1127111F22E1B8
:100B20003AE709012BD20D8111272017310708F46C
:100B300048C048818981489F0AE011271FD2342F7D
:100B4000320F08F455C04B818885489F0AE0112771
:100B500015D2342F320F28F466C0ECD04031E9F7BB
:100B600008942F91089518E091E084E344D164D172
:100B700001961A95D9F701E35FD100E35DD100EC4E
:100B800062D11DE091E08CE336D156D101961A95E1
:100B9000D9F7E3CF18E091E084E32DD14DD1019650
:100BA0001A95D9F701E348D102E346D100EC4BD1C5
:100BB0001EE091E088E51FD13FD101961A95D9F743
:100BC000CCCF18E091E084E316D136D101961A9586
:100BD000D9F701E331D101E32FD100EC34D11FE08B
:100BE00091E089E408D128D101961A95D9F7B5CFBB
:100BF00018E091E084E3FFD01FD101961A95D9F750
:100C000001E31AD103E318D100EC1DD11EE091E0FD
:100C100089E9F1D011D101961A95D9F709E40CD1DF
:100C200003E60AD19ACF18E091E084E3E4D004D13E
:100C300001961A95D9F701E3FFD004E3FDD000EC4B
:100C400002D11EE091E089E9D6D0F6D001961A953E
:100C5000D9F709E4F1D009E6EFD07FCFCF2DC072EC
:100C6000C695DD272A30A9F4C658088119811AD102
:100C700000916500E1D000916400DED00AE3DCD091
:100C8000012F10D100916500D7D000916400D4D01D
:100C900020C0C059C20F0881302F19E1219FC00127
:100CA0004496A9D0402F0F70039F800122D1E7E620
:100CB00042954F704C59E41711F40EE2BDD00291E9
:100CC000BBD0E536C0F7019696D0B6D0019693D04A
:100CD000B3D00895489F0AE0112750D1342F320F26
:100CE0003083421B4183341B51F03395359F16945A
:100CF000079418E907E968D12283338308952227EE
:100D00003327FACF4583332734838083382F3195B7
:100D10003183880F61F08395859F1694079416940C
:100D200007941EEB0CEB50D12283338308952227C6
:100D30003327FACFF8944091630045FF0AC04A95E3
:100D40004A954093630040916100409550E2789449
:100D50000895442319F0442751E00BC040916200EC
:100D60005091610050954523552750936200509152
:100D700063007894089501E066D00CE064D010E13F
:100D800091E086E638D058D001961A95D9F7D2DF8F
:100D9000423029F0483089F04031C9F7089591E098
:100DA0008EE0E0E7FF2701912DD00196EC37D9F7CF
:100DB00000EC49D000E340D00EC091E08AE1E0E8C9
:100DC000FF2701911FD00196EC38D9F700EC3BD0FA
:100DD00001E332D000C01EE091E086E20CD02CD0BE
:100DE00001961A95D9F705E0E02E6894F1F8A2DF94
:100DF0005523E9F7CCCFE199FECF9FBB8EBBE09A9C
:100E00000DB30895E199FECFF8949FBB8EBB0DBB47
:100E1000E29AE19A789408951F931FEF14BB65BB83
:100E2000DE9A0000DE98112714BB1FEF15BB1F913F
:100E300008957030F1F708951F9319D017FDFDCF75
:100E4000C09AC19806C01F9312D017FDFDCFC0985D
:100E5000C1981FEF14BB05BB0000C29A0000000040
:100E6000C298112714BB1FEF15BB1F910895C0989E
:100E7000C19AC29A0000000013B3C2980000C19842
:100E80000895C098C198C2980FEF04BB00E305BB5A
:100E90000000C29A00000000C298002704BB0FEFB8
:100EA00005BB08955F938F932F933F930F93222752
:100EB000332788E0522F53D0252F532F50D0352F72
:100EC000000F221F331F8A95A9F7FF27E6E630633C
:100ED0003083322F32953F7030633293322F3F7020
:100EE00030633293E6E60F913F912F918F915F919E
:100EF00008952F933F934F935F938F932227332728
:100F0000442780E1522F2BD0252F532F28D0352F67
:100F1000542F25D0452F000F111F221F331F441FB0
:100F20008A9581F7FF27E8E640634083432F429587
:100F30004F7040634293432F4F7040634293322F70
:100F400032953F7030633293322F3F70306332936B
:100F5000E8E68F915F914F913F912F9108950F9304
:100F6000052F0F70053010F003E0500F052F007FA4
:100F7000003510F000E3500F0F9108954F932FEFBD
:100F80003FEF41E04395000F111FE0F000161106FE
:100F9000C8F7169507954A958894E89408F46894DC
:100FA000001A110A28F488941EF0000E111E0894ED
:100FB000221F331F000C111C4A9579F7209530959C
:100FC0004F9108951795E6CF4F932FEF3FEF4427AA
:100FD0000AC0001A110A28F488941EF0000E111E8F
:100FE0000894221F331F000C111CE89408F4689425
:100FF0004395413171F7209530954F9108958901BE
:1010000078DF01E020DF008117DF029115DF029118
:0C10100013DF029111DF02910FDFFFCF10
:00000001FF
